:100000000C942A000C9457000C9479000C949B00DB
:100010000C9434000C9434000C9434000C94340090
:100020000C9434000C9434000C9434000C94340080
:100030000C9434000C9434000C9434000C94340070
:100040000C9434000C9434000C9434000C94340060
:100050000C94340011241FBECFE5D8E0DEBFCDBF25
:100060000E94BA000C94BF000C94000081B38B7FF7
:1000700081BB81B3877F81BB81B3806E81BB87B336
:100080008B7F87BB089585B7816085BF85B78D7FDE
:1000900085BF85B78C6085BF85B78D7F85BF84B7E9
:1000A0008F7B84BF8BB7806E8BBF789408951F922F
:1000B0000F920FB60F9211242F933F938F939F931C
:1000C00092B380E2982792BB2FEF39E698E1215056
:1000D00030409040E1F700C0000092B3892782BB16
:1000E0009F918F913F912F910F900FBE0F901F9076
:1000F00018951F920F920FB60F9211242F933F93D2
:100100008F939F9392B380E4982792BB2FEF39E6A9
:1001100098E1215030409040E1F700C0000092B3D8
:10012000892782BB9F918F913F912F910F900FBE96
:100130000F901F9018951F920F920FB60F921124D7
:100140002F938F939F9382B3805882BB2FEF89E6C2
:1001500098E1215080409040E1F700C0000082B358
:10016000805882BB9F918F912F910F900FBE0F905F
:100170001F9018950E9436000E944300FFCFF8940C
:02018000FFCFAF
:00000001FF
