S01000006C6162315F6C65642E7372656320
S11300000C942A000C9434000C9434000C943400A6
S11300100C9434000C9434000C9434000C9434008C
S11300200C9434000C9434000C9434000C9434007C
S11300300C9434000C9434000C9434000C9434006C
S11300400C9434000C9434000C9434000C9434005C
S11300500C94340011241FBECFE5D8E0DEBFCDBF21
S11300600E9436000C94B7000C9400008FEF8ABBFA
S113007011BA82BB829979C08BB381608BBB2FEF9D
S113008080E792E0215080409040E1F700C00000FA
S11300908BB382608BBB2FEF80E792E021508040CE
S11300A09040E1F700C000008BB384608BBB2FEF5E
S11300B080E792E0215080409040E1F700C00000CA
S11300C08BB388608BBB2FEF80E792E02150804098
S11300D09040E1F700C000008BB380618BBB2FEF31
S11300E080E792E0215080409040E1F700C000009A
S11300F08BB38F7E8BBB2FEF80E792E02150804043
S11301009040E1F700C000008BB3877F8BBB2FEFDB
S113011080E792E0215080409040E1F700C0000069
S11301208BB38B7F8BBB2FEF80E792E02150804015
S11301309040E1F700C000008BB38D7F8BBB2FEFA5
S113014080E792E0215080409040E1F700C0000039
S11301508BB38E7F8BBB2FEF80E792E021508040E2
S11301609040E1F700C0000085CF1BBA83CFF8941C
S1050170FFCFBB
S9030000FC
