S00C00004C6162322E73726563D7
S11300000C942A000C9434000C9434000C943400A6
S11300100C9434000C9434000C9434000C9434008C
S11300200C9434000C9434000C9434000C9434007C
S11300300C9434000C9434000C9434000C9434006C
S11300400C9434000C9434000C9434000C9434005C
S11300500C94340011241FBECFE5D8E0DEBFCDBF21
S11300600E944A000C946B000C94000087B3806BD0
S113007087BB8DB181658DB9089598B39F7E98BB78
S11300808FB9779BFECF6FB9779BFECF88B3806122
S113009088BB08950E9436006FEF89E00E943D00FE
S11300A06FE08AE00E943D0061E08CE00E943D0028
S11300B0C0E00EC06C2F8BE00E943D002FE38DE06A
S11300C093E0215080409040E1F700C00000CF5FF2
S10D00D0C93080F3EDCFF894FFCFA0
S9030000FC
