:100000000C942A000C9434000C9434000C943400AA
:100010000C9434000C9434000C9434000C94340090
:100020000C9434000C9434000C9434000C94340080
:100030000C9434000C9434000C9434000C94340070
:100040000C9434000C9434000C9434000C94340060
:100050000C94340011241FBECFE5D8E0DEBFCDBF25
:100060000E9436000C948D000C9400008FEF8ABB28
:100070008BB381608BBB2FEF80E792E021508040F3
:100080009040E1F700C000008BB382608BBB2FEF84
:1000900080E792E0215080409040E1F700C00000EE
:1000A0008BB384608BBB2FEF80E792E021508040C0
:1000B0009040E1F700C000008BB388608BBB2FEF4E
:1000C00080E792E0215080409040E1F700C00000BE
:1000D0008BB380618BBB2FEF80E792E02150804093
:1000E0009040E1F700C000008BB38E7F8BBB8BB3D9
:1000F0008D7F8BBB8BB38B7F8BBB8BB3877F8BBB96
:100100008BB38F7E8BBB2FEF80E792E02150804036
:0E0110009040E1F700C00000ABCFF894FFCFA5
:00000001FF
