S01000005365635F4C6162312E737265635A
S11300000C942A000C9434000C9434000C943400A6
S11300100C9434000C9434000C9434000C9434008C
S11300200C9434000C9434000C9434000C9434007C
S11300300C9434000C9434000C9434000C9434006C
S11300400C9434000C9434000C9434000C9434005C
S11300500C94340011241FBECFE5D8E0DEBFCDBF21
S11300600E9436000C944F000C9400008FEF8ABB62
S11300700E944100CFEF8C2F0E944A008BBBC150DD
S1130080FACF87B38F7487BB87B3806487BB80E460
S11300908DB908958FB9779BFECF8FB10895F894E9
S10500A0FFCF8C
S9030000FC
