:100000000C942A000C9434000C9434000C943400AA
:100010000C9434000C9434000C9434000C94340090
:100020000C9434000C9434000C9434000C94340080
:100030000C9434000C9434000C9434000C94340070
:100040000C9434000C9434000C9434000C94340060
:100050000C94340011241FBECFE5D8E0DEBFCDBF25
:100060000E9436000C9405010C940000CF93DF939E
:1000700000D01F92CDB7DEB7198281E08B8385E077
:100080008A83CE0101960E944D0019821B821A823A
:10009000CE0101960E944D00FFCFFC0181818F3F70
:1000A00009F485C09281992321F0913009F442C06E
:1000B000089590819130A1F028F09230F9F09330BA
:1000C00059F108954AB321E030E0B90102C0660F4A
:1000D000771F8A95E2F7CB01809584238ABB089528
:1000E00047B321E030E0B90102C0660F771F8A955F
:1000F000E2F7CB018095842387BB089544B321E0C8
:1001000030E0B90102C0660F771F8A95E2F7CB0194
:100110008095842384BB089541B321E030E0B90188
:1001200002C0660F771F8A95E2F7CB018095842382
:1001300081BB08959081913099F028F09230E9F0D8
:10014000933041F108954AB321E030E0B90102C093
:10015000660F771F8A95E2F7CB01842B8ABB08953F
:1001600047B321E030E0B90102C0660F771F8A95DE
:10017000E2F7CB01842B87BB089544B321E030E044
:10018000B90102C0660F771F8A95E2F7CB01842B75
:1001900084BB089541B321E030E0B90102C0660F8D
:1001A000771F8A95E2F7CB01842B81BB08958F3F9F
:1001B00059F58281882319F0813091F0089580816A
:1001C000813041F028F0823039F0833039F00895E1
:1001D0001ABA089517BA089514BA089511BA08956D
:1001E0008081813049F028F0823049F0833051F02D
:1001F00008958FEF8ABB08958FEF87BB08958FEF27
:0E02000084BB08958FEF81BB0895F894FFCF63
:00000001FF
