:100000000C942A000C9434000C9434000C943400AA
:100010000C9434000C9434000C9434000C94340090
:100020000C9434000C9434000C9434000C94340080
:100030000C9434000C9434000C9434000C94340070
:100040000C9434000C9434000C9434000C94340060
:100050000C94340011241FBECFE5D8E0DEBFCDBF25
:100060000E9436000C9462000C9400008FEF84BB59
:1000700084BB90E024C040E1949F900111242B6048
:1000800025BB2FEF31EE44E0215030404040E1F7F6
:1000900000C0000040E1849F90011124276025BB2F
:1000A0002FEF31EE44E0215030404040E1F700C0F6
:1000B00000008F5F01C080E08A30E8F29F5F9A30D5
:0800C000D0F3D7CFF894FFCF75
:00000001FF
